:100000000C9454000C9473000C9473000C947300C3
:100010000C9473000C9473000C9473000C94730094
:100020000C9473000C9473000C9473000C94730084
:100030000C9473000C9473000C9473000C94730074
:100040000C9473000C9473000C9473000C94730064
:100050000C9473000C9473000C9473000C94730054
:100060000C9473000C9473000C9473000C94730044
:100070000C9473000C9473000C9473000C94730034
:100080000C9473000C9473000C947300B800780106
:10009000F3001D01BF005B013E01BA01BA01A601D8
:1000A000B001BA01BA01BA0111241FBECFEFD0E4EA
:1000B000DEBFCDBF11E0A0E0B1E0EAEFF3E000E089
:1000C0000BBF02C007900D92AE30B107D9F721E007
:1000D000AEE0B1E001C01D92A631B207E1F70E9487
:1000E000BF010C94FB010C940000CF93DF9300D070
:1000F0001F92CDB7DEB789837B836A8389818A307B
:1001000031F48A819B81BC018DE00E94750080ECF6
:1001100090E0FC018081882F90E080729927892BE4
:10012000B1F386EC90E02981FC01208380E090E02F
:100130000F900F900F90DF91CF910895CF93DF93A1
:10014000CDB7DEB780910F0190911001CC01A0E0F6
:10015000B0E040E050E026E030E0841B950B28172B
:10016000390708F4D7C08A5B9F4FFC010C94F20159
:1001700084E090E09093100180930F01D2C08091B1
:100180000E01882331F484E090E090931001809375
:100190000F0180910E01813069F4809111019091DD
:1001A0001201892B39F482E090E090931001809342
:1001B0000F0118C080910E01813069F48091110106
:1001C00090911201069739F483E090E0909310012A
:1001D00080930F0107C084E090E09093100180931A
:1001E0000F019FC09EC0809114019091150101964E
:1001F000909315018093140180911301882329F4B1
:1002000085E290E021E0FC0120838091140190912F
:100210001501069729F0109212011092110106C0E3
:1002200086E090E0909312018093110185E090E0C8
:100230009093100180930F0174C0809114019091EC
:100240001501019790931501809314018091140179
:1002500090911501892B39F086E090E0909312017E
:100260008093110104C0109212011092110186E0D6
:1002700090E09093100180930F0153C080910E0184
:10028000813039F486E090E09093100180930F0163
:1002900048C080910E01882339F481E090E090936A
:1002A000100180930F013DC086E090E09093100113
:1002B00080930F0136C080910E01813039F485E0C2
:1002C00090E09093100180930F012BC080910E015C
:1002D000882339F481E090E09093100180930F011E
:1002E00020C085E090E09093100180930F0119C029
:1002F00080910E01882339F484E090E090931001FE
:1003000080930F010EC081E090E0909310018093E4
:100310000F0107C084E090E09093100180930F01DB
:10032000000080910F0190911001CC01A0E0B0E09D
:1003300040E050E026E030E0841B950B2817390799
:10034000D0F0835B9F4FFC010C94F20185E290E0BA
:1003500025E230E0F9012081220FFC0120830BC04F
:1003600085E290E025E230E0F90120812695FC014C
:10037000208301C000000000DF91CF910895CF934A
:10038000DF93CDB7DEB781E290E0FC01108282E21C
:1003900090E02FEFFC01208384E290E02FEFFC013E
:1003A000208385E290E0FC011082109210011092EF
:1003B0000F0180E290E0FC018081809580930E0126
:1003C00085E290E0FC018081809313010E949E00F1
:1003D000000080E290E0FC018081882F90E002968E
:1003E000C1F3E7CFEE0FFF1F0024001C0BBE0790E8
:0A03F000F691E02D0994F894FFCF78
:0E03FA0000000002000000007500000000007E
:00000001FF
